:100000000C94A20B0C94C10B0C94C10B0C94C10B5F
:100010000C94C10B0C94C10B0C94C10B0C94C10B30
:100020000C94C10B0C94C10B0C94C10B0C94C10B20
:100030000C94C10B0C9495240C94C10B0C94C10B23
:100040000C94C10B0C94C10B0C94C10B0C94C10B00
:100050000C94C10B0C94C10B0C94C10B0C94C10BF0
:100060000C94C10B0C94C10B0C94C10B0C94C10BE0
:100070000C94C10B0C94C10B0C94C10B0C94C10BD0
:100080000C94C10B0C94C10B0C94C10B0D0A436F63
:100090006E74656E742D547970653A206170706C61
:1000A00069636174696F6E2F782D7777772D666F2E
:1000B000726D2D75726C656E636F6465640D0A0DEB
:1000C0000A00436F6E74656E742D4C656E677468BC
:1000D0003A20000D0A557365722D4167656E743ABA
:1000E0002053424E472F312E310D0A416363657014
:1000F000743A202A2F2A0D0A436F6E6E6563746965
:100100006F6E3A20636C6F73650D0A000D0A002054
:10011000485454502F312E310D0A486F73743A20D1
:1001200000504F535420000D0A557365722D4167DE
:10013000656E743A2053424E472F312E300D0A41DE
:1001400063636570743A20746578742F68746D6C9D
:100150000D0A436F6E6E656374696F6E3A20636C4F
:100160006F73650D0A0D0A0020485454502F312E2C
:10017000310D0A486F73743A2000474554200045FA
:100180000000820000400020000108000604000179
:100190004E6F2073797374656D20696420666F7586
:1001A0006E642C2061646420612044533234303109
:1001B000206F7220757365206F6C6420736F667496
:1001C00077617265202A2A2A00466F756E64207353
:1001D000797374656D20696420253032582530327A
:1001E0005825303258253032582530325825303293
:1001F0005825303258253032580D0A005365747432
:10020000696E672064656661756C742076616C75D3
:1002100065730D0A0053746F6B6572626F742053BF
:1002200033202D204669726D776172652025752E09
:1002300025752072656164790D0A0053746F6B65D2
:1002400072626F74205333202D204669726D77617E
:1002500072652025752E257520626F6F74696E6733
:100260000D0A00435243204572726F7220286C6F52
:10027000737420636F6E6E656374696F6E3F2900DF
:1002800025303258253032582530325825303258F2
:1002900025303258253032582530325825303258E2
:1002A00020256325642E2530346400676F74207226
:1002B00065706C79202E2E2E0D0A00676F74206CED
:1002C0006364207265706C79202E2E2E0D0A004812
:1002D0005454502F312E302034303120556E6175FA
:1002E00074686F72697A65640D0A436F6E74656E27
:1002F000742D547970653A20746578742F68746D24
:100300006C0D0A0D0A3C68313E34303120556E6167
:100310007574686F72697A65643C2F68313E002F8E
:100320006578706F72742E68746D002F7374796CB9
:10033000652E637373002F616C6973742E6A73008A
:100340002F736C6973742E6A73002F6C6F61646510
:10035000722E6A73002F616C61726D732E6A730066
:100360002F666D75322E6A73002F666D752E6A7357
:1003700000452575005225750050257500442575EA
:10038000005625750054257500532575002F73659B
:100390007474696E67732F616C61726D002F736581
:1003A0007474696E67732F6E65740044257500411F
:1003B00044432575002F73657474696E67732F69E4
:1003C0006F002F73657474696E67732F67656E6550
:1003D00072616C003C68313E323030204F4B3C2F14
:1003E00068313E002F6765744C43442E706870007E
:1003F00073746F6B65726C6F672E646B003F69641A
:100400003D2530325825303258253032582530328B
:100410005825303258253032582530325825303260
:1004200058005374617274696E67206C6364207243
:10043000657175657374200D0A002F696E636F6DA9
:10044000696E672E7068703F763D310073746F6B14
:1004500065726C6F672E646B002669643D253032CF
:100460005825303258253032582530325825303210
:1004700058253032582530325825303258005374C0
:10048000617274696E6720776562636C69656E740A
:100490002072657175657374200D0A00526574725F
:1004A0007920646E73206C6F6F6B7570202E2E2E0A
:1004B000200D0A00476F7420646E73207265706CA3
:1004C00079203A2025642E25642E25642E2564206B
:1004D0000D0A0073746F6B65726C6F672E646B002E
:1004E0005265717565737420444E53206C6F6F6B49
:1004F00075700D0A0026442564543D256726442561
:1005000064483D25670026442564543D25672644FC
:100510002564483D2567002625303258253032585D
:10052000253032582530325825303258253032584F
:1005300025303258253032583D256325642E25302C
:10054000346400264425753D257500264144432525
:10055000753D257500417574686F72697A617469BB
:100560006F6E00627566203D202573200D0A0050D5
:100570006C656E206973202564200D0A006477285D
:10058000273C2F7461626C653E27293B666F726D54
:10059000656E6428293B3C2F7363726970743E005A
:1005A00064706F72742825642C2027442564272CDE
:1005B000202564293B006164637365742825642CDD
:1005C00020274144432564272C202564293B003CF7
:1005D000534352495054205352433D272F6C6F616F
:1005E0006465722E6A73273E3C2F53435249505420
:1005F0003E3C7363726970743E6D656E7528322C73
:1006000031293B666F726D737461727428272F7382
:10061000657474696E67732F696F27293B74666808
:100620002827696F272C2731272C30293B6477280E
:10063000273C7461626C6520626F726465723D3044
:100640003E27293B00506C656E206973202564208D
:100650000D0A00647728274D41534B3A2027293B48
:10066000746628274D41534B30272C2025642C20BD
:1006700032293B746628274D41534B31272C2025C6
:10068000642C2032293B746628274D41534B322776
:100690002C2025642C2032293B746628274D415399
:1006A0004B33272C2025642C2032293B666F726D3A
:1006B000656E6428293B3C2F7363726970743E3CFD
:1006C00062723E0064772827444E533A2027293B24
:1006D00074662827444E5330272C2025642C203262
:1006E000293B74662827444E5331272C2025642C3F
:1006F0002032293B74662827444E5332272C20256C
:10070000642C2032293B74662827444E5333272C0F
:100710002025642C2032293B647728273C62723ED6
:1007200027293B00647728274757203A2027293B71
:1007300074662827475730272C2025642C2032291F
:100740003B74662827475731272C2025642C2032FC
:10075000293B74662827475732272C2025642C20F4
:1007600032293B74662827475733272C2025642CD1
:100770002032293B647728273C62723E27293B00C0
:10078000647728274950203A2027293B7466282778
:10079000495030272C2025642C2032293B746628B0
:1007A00027495031272C2025642C2032293B7466A0
:1007B0002827495032272C2025642C2032293B74CD
:1007C000662827495033272C2025642C2032293BCA
:1007D000647728273C62723E27293B003C534352F2
:1007E000495054205352433D272F6C6F616465720A
:1007F0002E6A73273E3C2F5343524950543E3C735C
:1008000063726970743E6D656E7528322C31293BB8
:10081000666F726D737461727428272F73657474B8
:10082000696E67732F6E657427293B00506C656E87
:10083000206973202564200D0A00666F726D656E55
:100840006428293B3C2F7363726970743E3C62726A
:100850003E00647728274C4344203A2027293B63F5
:100860006228274C4344272C20272575272C20312C
:10087000293B647728273C62723E27293B00647736
:10088000282750617373776F7264203A2027293BC1
:100890007466282750415353272C20272573272C73
:1008A000203130293B647728273C62723E27293B60
:1008B000003C534352495054205352433D272F6C20
:1008C0006F616465722E6A73273E3C2F5343524911
:1008D00050543E3C7363726970743E6D656E75284A
:1008E000322C31293B666F726D73746172742827E4
:1008F0002F73657474696E67732F67656E657261B7
:100900006C27293B00616C61726D735B25755D20FE
:100910003D205B25752C20272575272C2725692749
:100920002C272575272C272575272C272575272C5F
:10093000272575275D3B0076617220616C61726DC1
:1009400073203D206E657720417272617928293BC2
:10095000005D3B005B25752C202725303258253063
:10096000325825303258253032582530325825300B
:1009700032582530325825303258272C202725630D
:1009800025642E25303464275D00766172207365FE
:100990006E736F72733D5B00506C656E20697320DF
:1009A0002564200D0A003C2F7072653E3C73637213
:1009B0006970743E666F722028693D303B20692063
:1009C0003C2073656E736F72732E6C656E6774680E
:1009D0003B20692B2B29207B2064772873656E735D
:1009E0006F72735B695D5B315D2B27203D20272B88
:1009F00073656E736F72735B695D5B325D2B273C51
:100A000062723E27293B207D3C2F736372697074AC
:100A10003E000A4E756D626572207375636365737F
:100A20007366756C20646174612075706C6F6164AD
:100A300073203A20000A4E756D626572206F662041
:100A4000646174612075706C6F616473203A20007A
:100A50000A557074696D653A202575646179732053
:100A60002575686F7572732025756D696E7574656F
:100A7000732025757365636F6E64730A000A77616E
:100A80006974696E6720666F7220444E5320616EF0
:100A9000737765722E0A000A77616974696E672040
:100AA000666F7220475720495020746F20616E7323
:100AB000776572206172702E0A000A53797374652B
:100AC0006D49443A2025303258253032582530328D
:100AD000582530325825303258253032582530329A
:100AE00058253032580A003C5343524950543E6D09
:100AF000656E7528322C31293B3C2F5343524950A7
:100B0000543E3C5052453E003C53435249505420C1
:100B10005352433D272F6C6F616465722E6A733F99
:100B20002575273E3C2F5343524950543E004425DF
:100B300064542025670D0A442564482025670D0A62
:100B400000442564542025670D0A44256448202567
:100B5000670D0A004F5025752025750D0A00524C6F
:100B600025752025750D0A004425752025750D0A6B
:100B7000004125752025750D0A0025303258253095
:100B800032582530325825303258253032582530E9
:100B90003258253032582530325820256325642EAE
:100BA000253034640D0A00485454502F312E302023
:100BB00034303120417574686F72697A6174696F7D
:100BC0006E2052657175697265640D0A5757572D0D
:100BD00041757468656E7469636174653A20426139
:100BE000736963207265616C6D3D2253746F6B6530
:100BF00072626F742061646D696E220D0A436F6EBC
:100C000074656E742D547970653A20746578742F0C
:100C100068746D6C0D0A507261676D613A206E6F79
:100C20002D63616368650D0A0D0A00485454502F06
:100C3000312E3020323030204F4B0D0A436F6E740E
:100C4000656E742D456E636F64696E673A20677ACE
:100C500069700D0A436F6E74656E742D54797065FA
:100C60003A20746578742F68746D6C0D0A50726147
:100C7000676D613A206E6F2D63616368650D0A0DC3
:100C80000A00485454502F312E3020323030204F3B
:100C90004B0D0A436F6E74656E742D547970653A0E
:100CA00020746578742F68746D6C0D0A50726167DA
:100CB0006D613A206E6F2D63616368650D0A0D0AE0
:100CC000001F8B0800000000000003C5564D8FDB9D
:100CD0003610BD1BF07F18780F4ED2D86BCB6BAFA0
:100CE000239F72C81605BA45D16DD133258E2426AF
:100CF000342988B4BD9B45FF7B87D487655B7637F5
:100D00000D9248802D91C39937EF71868A347F0206
:100D100078EEF70022167F4A0BBD513C84AB0FEFF3
:100D2000EE82BBC5CA8DAF59910A15C2C4BF597CAA
:100D3000B42326454A23312A8BC50AE0FA0DDC3F4D
:100D4000FCF201E6C0351A35B4D514F934C8412B8C
:100D5000601BAB416262AF0B9166B6726ADE3A9776
:100D6000E7AE686361D88A57FA1CFA187500ABF3CE
:100D700091C42D4AE0626B427873ED210B35DA099C
:100D80006EB310A693C9247F5C951E09E7438EB10C
:100D9000489E80ED8D20D1E42843881C19CC008D1D
:100DA000A2FB7763C35DC1F29CC25E420A28714D0B
:100DB000804058833219C39F99309017044C5903CF
:100DC0000A5366C516E19518E3188462718CC688CB
:100DD00048E2EB8B6E1D61A38A2A5A068A1585DECE
:100DE00041443F8692DF09C5E90976192AD818A13E
:100DF000D28BDE7E635B414028D9C54FD7F7FAB36B
:100E00009092396DFE166A1694D4FDD3EFF57B5798
:100E1000B156960945119E8F2577885615957FA066
:100E2000410B7EC2274F0AC77A9DA332CCA227B5B9
:100E300043BD5AA22E790E0472E497F2E8C4BF545F
:100E40001C57E49A4C6F248708FD9C616BBC943B53
:100E50008939F4EA36A237404A7A472EB1D06FD3A7
:100E6000558583727383C01487834DEB1275866F2B
:100E700029F4A6DE8944BE43720944B34994C75C91
:100E8000B1EC16BE72D85E8365E9112A1FB7825590
:100E9000AB9321E34E1A2863E58C73F211C26C9E6A
:100EA0003FC28CD884FA61555A1C14F62CBA5D2CBA
:100EB0006FAB990C4BFFD3C9DE3AD652176478E773
:100EC000AF6AD0EBC831D6056D644DFB406985D55E
:100ED0005C42798C8CF88C613BA81F4DD85AC8A70E
:100EE0001006F74F85601C7E2FF4C0E501ED4458D5
:100EF000B9CBBE2EF274F9B2C83E30A9B099D65122
:100F0000F7EC8C6A00071C35FC2E6A7ADDC3A40E50
:100F10002635B355591CBA3F492B9EF3058FBE3079
:100F2000AD9B2F4E8B8599DED6A5BB8F8E7112247B
:100F3000B303DBE0DB5210FC200A82175220D62CD0
:100F4000C5483F7E3316FABD715EE88F18DB3A4420
:100F500075944E5D814E209857EBBD75363DB2823B
:100F6000D39A5C2EDE2D6F66271C05E7287A4F0C7E
:100F700049EAFBEED418B42D7655E12B5DAC996CA3
:100F80002004C7941D10D01665DE44ACD106139F13
:100F9000D4614EB3173B0C4E1C96FE266D7F576BEB
:100FA0006A9817F46A3A47D561DC166B1A65E3B79D
:100FB000BC9B788DAE5E0F9F46F374C4FF8DBF3A25
:100FC000A9FE1935B967838ED4668D1F4987EAA8B3
:100FD00069BAFB96D53E613F6E8CA5F3EF28097682
:100FE00091C873A5E4493B597A90C5C5A5E348A4C7
:100FF00084F9D3FF0A7E5AC7FBFE50E6D45DA60DE6
:10100000BCD234D1DAEE8DBA8BF0DC6147DD86EEEE
:101010004EBD7EDDC482337860749EFFA544AC393A
:101020000EFE53ED2A9369A770FEAC3E86DD907FDD
:1010300089A53A60B070F7898B6E9A16FE6A943271
:1010400098B3C27FDC3D1F036EE12D17B7EAC4AF32
:101050008D25B2BD7FF71246DA66F57C225072FA12
:10106000D4EBF7EACAD3051DDC4404516FB414BCB9
:10107000B523FC0A89292ADED877B6FFF35F251D40
:10108000EE6F97D3D97C7A52B0A5FC751A42259A97
:10109000FAF9770E6BDD67CC51CC736DAE6A9BE5C8
:1010A0003A27EFD975DEE45F444507309D0D000017
:1010B00025454E441F8B0800000000000003658F8B
:1010C000410E82301444F79EA2E9A610139AE8124A
:1010D000CB49DC34F5138AA560FFAF428C77B78427
:1010E0001815B66F26933775F4866CEF59805BB48C
:1010F00001329D3F2FBD891D782A1EC11264E284F2
:1011000026D881184D03284E30926CF55D2F94330C
:101110000C4671B1D77BC1ABF3783472092A91BF09
:101120003EA35CD65D2C5AE479F9870E6BA69D45EB
:10113000DA421D3A5C53FC5637C2CEFA6B7AE4149D
:10114000479A1C600390447FFC0D22674D805AA58E
:10115000A1B952CC4426E772F706F2647B5813011A
:10116000000025454E441F8B0800000000000003CE
:101170008D913D6FC2301086777E85E581C40A105F
:1011800028A39D4855D5AFA51DD20D315C92CB87C4
:10119000487CC8366540FCF7DA88B68C0C3EEB5EBE
:1011A000DD73F79EDD1C74E57AD2AC21335A07C695
:1011B000C5204EF5318E5450D888AEA33AE3AFCF58
:1011C0005F9CC1A534E3510249C4F3489C9B5FDC9A
:1011D0005A1CB0F2F0AC9C55E2E433EB1BC95596B7
:1011E00055D329ED5DCCF98CCFFD79EA882C32D22C
:1011F000C885F42362C8961294456DC9D8C580BAD3
:10120000759D84241181BACA1BD86E965BDFFA26BD
:101210005F6D850C4363719EFCD918511F8287EB6B
:101220000A75FFCD7AEFBE43A8D1F0BC70B443532A
:101230009263C59ACDD94B6FC62318640F8BD55ACC
:10124000952657C03A834DC6539EBFD1882A857CC8
:10125000AA4BBB97B7F1BFCAA273BD6E6DDAA246A7
:101260000383C78AABA4EE24353A4F7DA03B92D9C5
:10127000DD3DAF270FBDA79F77033080193DF318E1
:101280006E1B3095FAD7C92F5B57A81D9AF09F7235
:10129000F2034D7936CD1102000025454E441F8BD7
:1012A0000800000000000003BD54C14EC3300CBD57
:1012B000EF2B2A5FDAAA1363032EAC2B42E300273D
:1012C00024E007D224DD22B6744A5D3698F877E22E
:1012D000A4DBDA3121C401A987D87E7EF67B515A7E
:1012E000D49AA32A7520D6118BB7A2E4F5526A3C92
:1012F0005B1B85D2663E8B1DA088583FEFF3BEB0C6
:10130000A87514A64AAF6A0CF07D252710262C0973
:1013100021D06CE9829C0225F6C737B6A85D8153BF
:1013200054A90F3909139140062D7E6C06C4DB22A7
:1013300002941B84BE8FDB90790B33574248FD1D0E
:101340005594C64A1091DB13D2DCD831638BAFEAD7
:101350007CA92C2BD8EF99BD493AC5638719504F0A
:10136000679B7285BB514EAD8D29BD57E2F48689CE
:10137000AA9EE542729482D03149B2222DA1C713B0
:10138000656FCFC904AF649B165234598A22BBD50E
:101390006C51CE026F29587270C6A6035BA3BADFE8
:1013A000334C2B37ACE37316C6635A7668AF066EC0
:1013B000EFA6E0C31185776AA6902D9AD405A5A65D
:1013C00065AD519ABD70CF98F94903341D1354355A
:1013D0009D4BFE4AE2E2AD91581B1D9CA7EC060214
:1013E000EEF3015C039CC03F3937762D6C32C97F28
:1013F000E8E93878D4533535DF74B052AC4A73D24B
:10140000C9467240F53F3A794E3E3DD668EFA26D2F
:10141000E6833E248EACA4D4A533FCFE65346A1268
:10142000574D6238FC9DD9B658B92778623DE6D74A
:10143000EB8065033EF0FEF7D5F1BCF344DA3F04E0
:10144000D790971BE84868FE0974A4A7B3DBD0BE09
:101450009BB0FB8F20ADE3DE170EED38A09C04009F
:101460000025454E441F8B08000000000000037556
:10147000925F0B823014C5DFFD14719F2609EAB418
:101480005EB420282A088A8A7A101F96CE0A4CC396
:101490002D7A88BE7BF35F34D3C79DF3BBBBE7B027
:1014A000458F24E0D734E9B14BFA9CC424BB21A278
:1014B000BEA234BB314E328E406794F36B72663AF3
:1014C000C95D509DF089C0E5D9D8E5E1581C19A344
:1014D000310D04B9833ED10A8879C4F70C5F332BF0
:1014E0005817644DD39821D80B5475D2BB9832E16C
:1014F00067C6F43570A17270D319D58ED574AA9BC6
:1015000029FA5FC82304073919F635DC956CFA4DC2
:1015100066FE4C5845975CC5B28A4BD59255AB5484
:101520006D59B53B3396AB37ADAB6D516FB19C2F59
:10153000AAEE46C35AAD8FDDDD831382ADDC7D504C
:101540003451DAC8994C0E5BDF2FFF193409A565B9
:10155000BAF80CA0BE1DE503EE469B8B4D020000C1
:1015600025454E441F8B08000000000000035D90DD
:10157000CF0B823014C7CFEDAFD84DC568D82970D6
:101580000E423A742A54BA4FB7B050276F9BD27F9D
:101590009FBA4AE8F0E07DBEEFF7A3799A9DAF05C8
:1015A000CEB334F148A3B890B07B6A8F51E2220CDD
:1015B000515DC1A3370CB5B2B3FE7E1B053142624B
:1015C000F43D6A78D9485C2A988A92887953C0E9B0
:1015D000B5E48251039309962B0B95A4C488058B1F
:1015E00057BFC28D3776A58B35BD357F88B5E1668F
:1015F000CDC9E42041AF7CEAE6251C92792271D363
:10160000E765EE0AB03F70C0BCE1D02651EC1C9AF1
:101610001C3E5E180668A36B351E67F217ED771D3A
:1016200059CE5B1A214ABE4F7803E5B98593310143
:10163000000025454E446E616E00696E66000040F4
:101640007A10F35A00A0724E18090010A5D4E800D1
:1016500000E87648170000E40B54020000CA9A3BE9
:10166000000000E1F505000080969800000040426F
:101670000F000000A08601000000102700000000FD
:10168000E803000000006400000000000A00000001
:1016900000000100000000002C76D888DC674F08AD
:1016A00023DFC1DFAE59E1B1B796E5E3E453C63AB3
:1016B000E651997696E8E6C28426EB898C9B62ED2A
:1016C000407C6FFCEFBC9C9F40F2BAA56FA5F490E4
:1016D000055A2AF75C936B6CF9676DC11BFCE0E45B
:1016E0000D47FEF520E6B500D0ED902E03009435B1
:1016F00077050080841E080000204E0A000000C804
:101700000C333333330F986E12831141EF8D211454
:10171000893BE65516CFFEE6DB18D1844B381BF724
:101720007C1D901DA4BBE424203284725E228100C3
:10173000C9F124ECA1E53D276364696E6F70737590
:1017400078585B0011241FBECFEFD0E4DEBFCDBFC1
:1017500015E0A0E0B1E0ECE9F6E800E00BBF02C064
:1017600007900D92A834B107D9F722E2A8E4B5E0BA
:1017700001C01D92A33FB207E1F70E94DD190C944E
:101780004C430C9400008F929F92AF92BF92CF92E5
:10179000DF92EF92FF920F931F93CF93DF9300D0CE
:1017A00000D01F92CDB7DEB78B017A01922EFE01D9
:1017B000319695E0DF011D929A95E9F797B1E1E046
:1017C000F0E0082E02C0EE0FFF1F0A94E2F79E2BF6
:1017D00097B998B19E2B98B9BFEF20E732E0B1508E
:1017E00020403040E1F700C0000098B12E2F209536
:1017F000922398B9911005C0AFE9BCE81197F1F7B1
:1018000004C0A7EEB3E01197F1F700C0000098B153
:101810009E2B98B997B1922397B9BAE6BA95F1F78A
:1018200000C026B130E0082E02C0359527950A94F5
:10183000E2F720FD99C025ED2A95F1F7000026B1C9
:1018400030E002C0359527958A95E2F720FF8EC0DB
:1018500035ED3A95F1F70000DE0111966E0186E054
:10186000C80ED11CAA24A394B12C87E090E0812C4F
:1018700049EC50E026B130E02E233F23232B39F4EE
:101880004150510941155105A9F78DEF72C020E56E
:101890002A95F1F746B150E04E235F23452B39F0EE
:1018A0009501082E01C0220F0A94EAF7822A69ECFA
:1018B00070E046B150E04E235F23452B39F0615074
:1018C000710961157105A9F78CEF53C0019780F676
:1018D0008D92AC15BD0549F687B18E2B87B988B1BD
:1018E0008E2B88B98FEF90E7A2E081509040A04006
:1018F000E1F700C0000099812A813B814C81822F51
:10190000890F830F840F5D81851332C01F924F931F
:101910001F923F931F922F931F929F9380E391E01A
:101920009F938F930E94893E0FB6F894DEBF0FBE3F
:10193000CDBF29818B8130E0992069F0322F222799
:101940009A81292BD7012D933C9390E0982F8827DB
:101950002C81822B04C0D7012D933C9390E0F80199
:101960009183808380E005C08FEF03C08EEF01C0BC
:101970008BEF0F900F900F900F900F90DF91CF9102
:101980001F910F91FF90EF90DF90CF90BF90AF909D
:101990009F908F9008952C98962F9F71982B9EBDA5
:1019A0000DB407FEFDCF1EBC0DB407FEFDCF67FDD5
:1019B00003C02C9A8EB508951EBC0DB407FEFDCF52
:1019C000F8CF2C986F71682B6EBD0DB407FEFDCF5C
:1019D0004EBD0DB407FEFDCF2C9A0895FB012C9847
:1019E0002AE32EBD0DB407FEFDCF8E0F9F1FE81713
:1019F000F90739F01EBC0DB407FEFDCF2EB52193BB
:101A0000F6CF10822C9A08952C982AE72EBD0DB49B
:101A100007FEFDCF860F971F6817790741F0FB017E
:101A20002191BF012EBD0DB407FEFDCFF5CF2C9A3D
:101A300008951F93CF93DF93182F1076C12FD0E016
:101A400020914A0530E0C217D30789F043E06FE1E7
:101A500080EA0E94E10CAE0185E0559547958A9594
:101A6000E1F76FE180E80E94E10C10934A05DF91F5
:101A7000CF911F910895CF93DF931F92CDB7DEB71B
:101A8000682F69830E94190D698180E00F90DF91B2
:101A9000CF910C94CB0C1F93CF93DF931F92CDB7B4
:101AA000DEB7182F69830E94190D4981612F80E4E8
:101AB0000F90DF91CF911F910C94E10C682F84ED72
:101AC0000E944B0D61E082ED0E944B0D88E28A95E9
:101AD000F1F78AEE0E943B0D80FDFBCF60E082EDC6
:101AE0000E944B0D89ED0E943B0D90E008951F93DD
:101AF000CF93DF931F92CDB7DEB7162F682F84EDFB
:101B000079830E944B0D612F86ED0E944B0D7981E8
:101B1000672F87ED0E944B0D18E28AEE0E943B0D65
:101B200080FF04C0812F8A95F1F7F7CF0F90DF91E6
:101B3000CF911F910895682F677085E70C944B0D26
:101B4000CF93DF93EC01249A2C9A84B1806A84B9F4
:101B5000269A2D9A2F9A80E58CBD8DB58DBD4FEFBD
:101B600060E08FEF0E94E10C80E090E00197F1F7D8
:101B7000109249051092480560E088E00E944B0DE4
:101B800060E089E00E944B0D60E08CE00E944B0D0C
:101B900060E08DE00E944B0D6FEF8AE00E944B0DDC
:101BA00069E18BE00E944B0D60E084E00E944B0DE8
:101BB0006AE185E00E944B0D6FEF86E00E944B0DBD
:101BC0006FE187E00E944B0D60EB88E30E944B0DB4
:101BD0006FE388E20E944B0D60E389E20E944B0DA7
:101BE00069EF80E30E944B0D67EF81E30E944B0D8C
:101BF0006DE080EC0E944B0D60E081EC0E944B0D8B
:101C000042E362EC80E80E94E10C62E186EC0E9413
:101C10004B0D6CE087EC0E944B0D62E184EC0E945E
:101C20004B0D6CED8AEC0E944B0D65E08BEC0E9435
:101C30004B0D688184EE0E944B0D698185EE0E94F8
:101C40004B0D6A8182EE0E944B0D6B8183EE0E94E8
:101C50004B0D6C8180EE0E944B0D6D8181EE0E94D8
:101C60004B0D60E071E080E10E94770D8FE10E94F2
:101C7000190D40EC6BE180E80E94E10C44E06FE15B
:101C800080E8DF91CF910C94E10C82E70E943B0D3C
:101C9000863008F08F5F089581E10E945E0D21E09B
:101CA000892B09F420E0822F08950F931F93CF937F
:101CB000DF93EC018B016FE180E00E94CB0C83FF8E
:101CC00010C08CE10E943B0D81FFF5CF40E86FE131
:101CD00080E80E94E10C40E86FE180EA0E94E10C9C
:101CE000EACF60E082E00E944B0D6AE183E00E944F
:101CF0004B0D6C2F86E00E944B0DCE01965E692F36
:101D000087E00E944B0D40E060E08AE70E94E10C12
:101D1000B801CE010E94040D48E06FE180E8DF9138
:101D2000CF911F910F910C94E10C9F92AF92BF92B3
:101D3000CF92DF92EF92FF920F931F93CF93DF9397
:101D40007C016B0189E30E943B0D882309F45BC091
:101D500060914805C091490580E00E944B0D6C2FB1
:101D600081E00E944B0D60E08AE30E94CB0C082FBB
:101D700060E08AE30E94CB0C10E0182B1093490519
:101D80000093480560E08AE30E94CB0CC82F60E016
:101D90008AE30E94CB0C982E60E08AE30E94CB0C71
:101DA000A82E60E08AE30E94CB0CA7FE0FC097012B
:101DB00021503109D0E0D92924972C173D0708F488
:101DC000E901B601CE010E94EE0C02C0C0E0D0E0F5
:101DD0006FEF01308AE118072CF08CE00E944B0D68
:101DE00069E107C0600F8CE00E944B0D01501109A2
:101DF000612F8DE00E944B0D40E46EE180E80E946F
:101E0000E10CCE0102C080E090E0DF91CF911F9104
:101E10000F91FF90EF90DF90CF90BF90AF909F9089
:101E20000895CF93DF93F90150E0EC01A881BA2F18
:101E3000BF7D01F1AA30F1F0511116C0B081AB1392
:101E400010C0A181AA2311F031960CC0DC011196BB
:101E500051E0EC0189818D3309F050E0F901CD01A9
:101E600001C0F9010196E1CFDC01FB0150E04150D6
:101E700051090EC05130C1F380E011C09A3071F0A9
:101E8000963261F0282F30E0241735073CF4919307
:101E90008E2F861B9D91292F2F7D81F71082DF9138
:101EA000CF9108958091500508958CE495E00895B0
:101EB0000F931F93CF93DF93EC01162F072F1092F0
:101EC000500510924B05809151058F5F809351050D
:101ED000682F70E0706E25E330E043E151E0CE0101
:101EE0000E94A513809151058BA781E08CA7FE016C
:101EF000BD9683E011928F5F8A30E1F781E08FA772
:101F0000E12FF02F20E03CE04DE0411B642F6E0FED
:101F10005491862F90E0552389F05E3239F4DE012A
:101F2000A30FB11D9A962C93362F20E0DE01A80F47
:101F3000B91F9A965C932F5F3196E8CFFE01E30FAD
:101F4000F11D215022A7FE01E80FF91F12A681E022
:101F5000860FFE01E80FF11D12A682E0860FFE013A
:101F6000E80FF11D81E082A793E0960FFE01E90FD3
:101F7000F11D12A694E0960FFE01E90FF11D82A754
:101F800089EF860F8AA76B5FCE01DF91CF911F91FA
:101F90000F910C941A14CF93DF93FC0166347105F2
:101FA00008F455C083A1853309F051C084A1803E57
:101FB00009F04DC085A190915105891348C093A5A2
:101FC000981345C085A58F78803811F081E028C02E
:101FD00092A52CE0290FDF01A20FB11D9A968C91DA
:101FE000807C19F02EE0290F13C061537109822FF4
:101FF00090E08617970760F481E0820FDF01A80F59
:10200000B11D9A969C91992311F0282FF0CF2E5F45
:10201000DF01A20FB11DD3968C91843021F082E0B4
:1020200080934B0514C0265FACE4B5E080E090E0FF
:10203000E20FF11DEF01C80FD91F2AA52D930196BC
:1020400084309105B9F781E08093500501C080E0AC
:10205000DF91CF910895EF92FF920F931F93CF934B
:10206000DF93890190917605891751F0E09173050E
:10207000F091740540E050E060E070E084E02BC037
:1020800061112AC02D30310538F1C0917305D0910E
:102090007405209709F1E0906705F0906805BA0192
:1020A000675F7F4F6E0D7F1D43E050E083E491E05A
:1020B0000E94E83DF70166A562956F70F4E06F9F9E
:1020C000B00111246E5D7F4FA801892B11F480E0CF
:1020D00001C081E0FE01099580E0DF91CF911F9161
:1020E0000F91FF90EF900895FF920F931F93CF935E
:1020F000DF93FB01413051F4AB014850510960E0DE
:1021000070E04F5E5F4F6F4F7F4F0FC0423051F412
:10211000AB014850510960E070E04A5F5F4F6F4F7C
:102120007F4F03C040E050E0BA01EF01DC01C23054
:10213000D10598F00C9110E020E030E0322F212FF3
:10214000102F00271196FC9011970F29400F511F57
:10215000621F731F12962297EACFDF01AE7FA80F8E
:10216000B91FE0FF0CC08C9190E0A0E0B0E0BA2F66
:10217000A92F982F8827480F591F6A1F7B1FCB0153
:10218000AA27BB270097A105B10519F06627772775
:10219000F2CFCA0180959095DF91CF911F910F9159
:1021A000FF9008955093830540930401FB01A4E53B
:1021B000B5E021912D9325E0A835B207D1F7FC01B8
:1021C000A8E5B5E081918D9385E0AE35B807D1F7EC
:1021D0000895DC015A96FB0180E02D91919129131D
:1021E00005C08F5F8430C9F781E0089580E00895CD
:1021F00069327105A8F0FC012485283089F4258511
:10220000263071F4DC019696E4E5F5E09D9181912C
:10221000981306C085E0E835F807C1F781E0089516
:1022200080E00895FC016A327105B0F08485883041
:1022300099F48585811110C08685853469F47E9670
:10224000A4E5B5E091918D91981306C085E0A8357D
:10225000B807C1F781E0089580E00895CF93DF9338
:10226000E8E5F5E0DC0116962C91EC012993CE010E
:1022700021912D93D5E0EE35FD07B1F7DF91CF9198
:102280000895CF93DF93EC01188E198E80E48C8B28
:102290001D8A8E8B40E064E170E0CE010E960E94B4
:1022A0007410988F898FDF91CF910895CF93DF932A
:1022B000EC016E96E4E5F5E0DC015A962C91299349
:1022C00021912D9325E0E835F207C1F7DF91CF91F9
:1022D0000C944111FC01BA96DC019E9686962291DF
:1022E000620F711D2E916C93442311F0208301C065
:1022F0001082672F7727E817F90789F70895CF939A
:10230000DF93EC018CA19AA19CA38AA38DA19BA130
:102310009DA38BA3CE010E946A111AAA1BAA80E575
:102320008EA7DF91CF910895CF93DF93EC010E94A8
:102330002E111C8A82E08D8BCE01809648E555E0F7
:10234000DE0156962C91FC012193CF01FA012191D7
:10235000AF012D93F5E04E355F07A1F7CE018696CC
:1023600044E555E0DE015C962C91FC012193CF0100
:10237000FA012191AF012D93F5E048355F07A1F7F0
:10238000BE018AE290E0DF91CF910C94550E0F933D
:102390001F93CF93DF93EC018B010E942E11CE018E
:1023A0000E9456111AA29CA1983F18F08DA18F5F30
:1023B0008DA3985F9CA3BE01C801DF91CF911F91AF
:1023C0000F910C94550ECF93DF93EC010E942E11C8
:1023D000188A8CE2898BCE010E94561182E18FA768
:1023E00040E061E070E0CE010E947F111EA21FA2BA
:1023F0008091000188A719A68D5F8093000182E07B
:102400008EAB84E08FAB85E088AF19AE90E69EA7D7
:1024100088AB88E789AB42E060E270E0CE014A9683
:102420000E9474109AAB8BABBE018AE390E0DF91FF
:10243000CF910C94550EFC01808990E0982F88274D
:102440002189822B449726A522952F7034E0239F63
:1024500080199109112497FF02C080E090E008954F
:102460009C01CB01461B570BFA01E80FF91FE491C1
:10247000EE2339F0D901A80FB91FD696EC93019637
:10248000F3CF0895DB01D696A80FB91FFA01420FCA
:102490004E1719F081918D93FBCFCB01820F911DC7
:1024A0000895FA0101900020E9F79F0121503109B8
:1024B000241B350B0C944212EF92FF920F931F9343
:1024C000CF93DF9300D000D01F92CDB7DEB79091AD
:1024D00076058913A4C08091750500916705109158
:1024E0006805811134C04AE751E060E070E0C8013E
:1024F0000E94301240916D0550916E05BC01C801DB
:102500000E94301240916B0550916C05BC01C801CE
:102510000E945112BC01C8010E946F3000916705F2
:102520001091680548E651E0BC01C8010E943012D4
:102530004091690550916A05BC01C8010E943012A2
:1025400047E251E0BC01C8010E9430126AC041E27A
:1025500051E060E070E0C8010E94301240916D05CA
:1025600050916E05BC01C8010E9430124FE051E04D
:10257000BC01C8010E9430124091690550916A0562
:10258000BC01C8010E943012E0907105F090720504
:10259000E114F10459F04CE051E0BC01C8010E9483
:1025A0003012A701BC01C8010E94301243ED50E077
:1025B000BC01C8010E94301242EC50E0BC01C801CD
:1025C0000E9430127C01A0916F05B0917005FD0151
:1025D00001900020E9F731974AE0BE016F5F7F4F1D
:1025E000CF018A1B9B0B0E942A3E00916705109128
:1025F0006805AE014F5F5F4FB701C8010E945112DD
:102600004CE850E0BC01C8010E94301240916F05B7
:1026100050917005BC01C8010E94511202C080E0B7
:1026200090E00F900F900F900F900F90DF91CF914F
:102630001F910F91FF90EF9008950F931F93CF93E9
:10264000DF9300D01F92CDB7DEB78C014B83698337
:102650007A830E942E114B81842F8061F80187A715
:1026600069817A81443029F06115710511F461E0C6
:1026700070E041E0C8010E947F11F801108A88E2F1
:10268000818BC8010E94561184E0F80180AB11AA29
:1026900042E06CE170E0C8014A960E947410F801B3
:1026A00092AB83ABB80186E390E00F900F900F9050
:1026B000DF91CF911F910F910C94550E0F931F93A3
:1026C000CF93DF93EC018B01CB018896988B898B9C
:1026D000CE010E9441111AAA1BAAB801645E7F4F65
:1026E00042E0CE014A960E9474109AAB8BABBE01B9
:1026F000C801C696DF91CF911F910F910C94550E92
:102700000F931F93CF93DF93EC018B0160915205E0
:102710007091530540E00E941D1389E18FA7B80115
:10272000CE01DF91CF911F910F910C945E13640F36
:10273000751F4617570741F0FA012491FC012193B8
:10274000CF014F5F5F4FF5CF0895AF92BF92CF9209
:10275000DF92EF92FF920F931F93CF93DF9300D0FE
:10276000CDB7DEB75C01F62EE72E6A01EFE5F5E0A6
:102770008C0188E595E0B5016A5F7F4F4191D801F2
:102780004D938D01DC014D91CD01DB014D93BD01D8
:10279000B5E0E536FB0791F788E0F50184871586FB
:1027A0004FE751E069E070E0C5010E9629833A8356
:1027B0000E949713D50150961C92509781E157962D
:1027C0008C938601C5014E96A4E5B5E03A81298136
:1027D000F80141918F01FC014193CF016D91AF014F
:1027E00045505109FA016083F5E0A835BF0781F72C
:1027F000D50194963C93949795962C9395979296A1
:10280000EC9292979396FC92939796961C92969739
:1028100098961C92989799961C920F900F90DF9122
:10282000CF911F910F91FF90EF90DF90CF90BF90CD
:10283000AF9008950F931F93CF93DF93EC01062F72
:102840008CE1860F898BCE010E94411188E0800FB8
:102850008FA310E0B801605F7F4F41E0CE014A9640
:102860000E94741098A789A7BE01C8018A96DF91BB
:10287000CF911F910F910C94550E0F931F93CF93EF
:10288000DF93EC018B01AE014A5F5F4FE8E5F5E0B5
:102890003FEFDC013D93CD012191DA012D93AD0194
:1028A000B5E0EE35FB07A9F788E08C8786E08D87D9
:1028B00048E851E068E070E0CE010E960E94971360
:1028C000DE01909648E555E0FA012191AF01CD0176
:1028D0000A97FC0120831D92F5E04E355F07A1F7B2
:1028E000B801CE018696A4E5B5E0FB012191BF01B8
:1028F000FC012193CF014D919F012B503109F9012A
:102900004083F5E0A835BF0781F780915E058860B8
:1029100080935E05BE018AE290E0DF91CF911F9126
:102920000F910C94550E80915E058695817091E013
:1029300089270895DC015C96E3E2F1E03D91219165
:1029400032130FC021E0E732F207C1F7DC015696DF
:10295000EFE5F5E08D91819385E0E536F807D1F755
:1029600002C080E0089581E0089521E020935E0593
:10297000E3E2F1E0DC012D91CD012193B1E0E732FA
:10298000FB07C1F70895EEE7F5E0DC012D91CD01DD
:102990002193B5E0E238FB07C1F70895DF92EF928B
:1029A000FF920F931F93CF93DF93EC01F62EE42E4B
:1029B000D22EEFE5F5E08C0188E595E0AE014A5FA7
:1029C0005F4F2191D8012D938D01DC012D91CD0117
:1029D000DA012D93AD01B5E0E536FB0791F788E00C
:1029E0008C871D864FE751E069E070E0CE010E96BE
:1029F0000E9497138CE2898B86E08F8B6EE775E0DF
:102A0000DE015E9684E595E0FB012191BF012D93E7
:102A1000FC014191CF019D0125503109F90140830D
:102A2000F5E062387F0781F7CE010E944111ECA2E8
:102A3000DDA28BE08AA3FBA2FE01B69688E011928C
:102A40008150E9F78091000188A78D5F8093000194
:102A500080E68EA782E08FA793E098AB19AA1AAA06
:102A60001BAA1CAA1DAA8EAB94E09FAB88AF86E27E
:102A700089AF42E060E270E0CE014A960E94741095
:102A80009AAB8BABBE018AE390E0DF91CF911F91AF
:102A90000F91FF90EF90DF900C94550E90937A0574
:102AA00080937905709378056093770550937C0542
:102AB00040937B0581E080937D05809182058F5F47
:102AC000883018F48093820502C0109282058091AC
:102AD0008205089590936E0580936D0570936C0543
:102AE00060936B0550936A054093690510927505D4
:102AF000309374052093730540E550E06CE572E176
:102B00008BE290E10E944E15809376050895CF9256
:102B1000DF92EF92FF920F931F93CF93DF931F9259
:102B2000CDB7DEB76C018B0161157105E9F58091B8
:102B30005E05857079F08091010190910201892BE9
:102B400049F40E944C0E882329F063E271E0C6012B
:102B50000E943D1480910101909102010196909391
:102B600002018093010180917D05813009F04BC104
:102B700080915E0581FF47C182E080937D05609171
:102B800003016F5F609303016F718091820520E202
:102B9000829FC0011124682B20917B0540917C0508
:102BA000C6010E94CE142FC10E94F8108823D1F0D4
:102BB000D60155968C91813019F4C6010E9494116A
:102BC00080915E0583FF1FC1F6011589123009F05F
:102BD0001AC1C6010E949A14882309F414C11093E3
:102BE0005E0511C1B801C6010E941211882309F4C3
:102BF0000AC1D60157968C915797813099F49296D5
:102C00008C91883009F004C1E0916505F09166056A
:102C1000309719F0C6014A960995B801C6010E947D
:102C2000C711F1C00633110518F4863009F0EBC066
:102C3000F60184A18B3009F0B3C0D0926805C09230
:102C400067056EE775E0C6010E94E910882309F464
:102C5000DAC0D6019F962C919F9722FF13C0E09176
:102C60007905F0917A05309709F490C095968C918A
:102C700020E030E040E050E063E082958695877088
:102C8000099584C0C60129830E941B127C01809192
:102C90007D052981823099F5822F80712271223140
:102CA00009F540E060E070E0C6010E941D1388E174
:102CB000F60187A7E0917705F0917805309741F00C
:102CC000D60193968C91829586958770099502C05E
:102CD00080E090E023E020937D05BC01C6010E94C6
:102CE0005E1391C091E090937D05811104C0B701FE
:102CF0006F5F7F4F02C060E070E044E071C08330DE
:102D0000A9F5E114F10491F184E080937D05E0914F
:102D10007905F0917A05309749F1D6019E964C914C
:102D200042954F70B4E04B9FA0011124C801089751
:102D30004E5D5F4F8417950708F4AC01C701840FFF
:102D4000951F0817190720F49801241B350B01C0A3
:102D50009701D60195968C9160E082958695877053
:102D60000995882319F049E0B7010DC080917D05D0
:102D7000853009F448C0F60187A580FF0BC0B70174
:102D80006F5F7F4F49E0C6010E941D1385E080936D
:102D90007D0539C0E114F104B1F140E0B70120C074
:102DA0009091830589132FC095A1809104019813F8
:102DB0002AC0F7A4F1FE04C0C6010E94E31123C09B
:102DC000F4FE21C0C6010E941B129093530580930C
:102DD0005205892B49F4F0FE16C040E060E070E037
:102DE000C6010E941D130FC0F60126A522952F7063
:102DF000F4E02F9F900111242E5D3F4F08501109E0
:102E00000217130718F480E090E006C0C90104C05F
:102E100006331105C0F30CCF0F90DF91CF911F91B6
:102E20000F91FF90EF90DF90CF9008958536910538
:102E300068F084569109A8952FEF30E742E02150C1
:102E400030404040E1F700C00000F0CF009741F073
:102E5000EFECF7E03197F1F700C000000197F6CFF3
:102E6000A89508958BE090E00E945B2180931F015C
:102E70008CE090E00E945B21809320018DE090E047
:102E80000E945B21809321018EE090E00E945B21F3
:102E9000809322018FE090E00E945B2180932301C8
:102EA00080E190E00E945B218093240181E190E029
:102EB0000E945B218093250182E190E00E945B21CA
:102EC0008093260183E190E00E945B2180931701AB
:102ED00084E190E00E945B218093180185E190E0FD
:102EE0000E945B218093190186E190E00E945B21A2
:102EF00080931A018FE190E00E945B21809313017F
:102F000080E290E00E945B218093140181E290E0D6
:102F10000E945B218093150182E290E00E945B2178
:102F200080931601089560911F018BE090E00E944C
:102F30001C21609120018CE090E00E941C21609196
:102F400021018DE090E00E941C21609122018EE021
:102F500090E00E941C21609123018FE090E00E948C
:102F60001C216091240180E190E00E941C2160916D
:102F7000250181E190E00E941C216091260182E1FF
:102F800090E00E941C216091170183E190E00E9473
:102F90001C216091180184E190E00E941C21609145
:102FA000190185E190E00E941C2160911A0186E1DF
:102FB00090E00E941C21609113018FE190E00E943B
:102FC0001C216091140180E290E00E941C2160911C
:102FD000150181E290E00E941C216091160182E2BD
:102FE00090E00C941C21AF92BF92CF92DF92EF92AF
:102FF000FF920F931F93CF93DF93E0E1F6E01192DE
:1030000028E0E43AF207D9F780E090E0E09108097F
:10301000F0910909E80FF91F10820196803EE1E066
:103020009E07A1F73CEAC32E35E0D32E44EAA42E36
:1030300048E0B42E0AE019E15CE8E52EF12CC4E684
:10304000D0E0CE010E945B21F60181936F01F50172
:1030500011925F01833039F4C7010E945D21F801AC
:103060009183808303C0F801118210822196F2E0DF
:10307000EF0EF11C0E5F1F4FCC36D10511F784EB1C
:10308000A82E85E0B82E9CEAC92E98E0D92E0AE138
:1030900019E120EAE22EF12CCEE6D0E0CE010E942A
:1030A0005B21F50181935F01F60111926F0183307D
:1030B00039F4C7010E945D21F8019183808303C028
:1030C000F801118210822196F2E0EF0EF11C0E5FE2
:1030D0001F4FC237D10511F7DF91CF911F910F918B
:1030E000FF90EF90DF90CF90BF90AF900895AF9298
:1030F000BF92CF92DF92EF92FF920F931F93CF93E5
:10310000DF9300D000D0CDB7DEB787E491E00E9416
:10311000BF3E1C821B821A8219826EE6E62E69E18E
:10312000F62E74EBC72E75E0D72E0EE610E0C80120
:103130000E945B215601F60180838530B1F420E0C6
:10314000AE014F5F5F4FBE016D5F7F4F84E9800F1F
:103150000E94C30B811109C08B819C81F70191836F
:10316000808389819A8193838283FFEFCF1ADF0A5C
:10317000F50180818430B1F421E0AE014F5F5F4FF3
:10318000BE016D5F7F4F84E9800F0E94C30B8111E8
:1031900009C08B819C81F7019183808389819A8109
:1031A000938382830F5F1F4FF4E0EF0EF11C023711
:1031B000110509F0BCCF0F900F900F900F90DF9189
:1031C000CF911F910F91FF90EF90DF90CF90BF9024
:1031D000AF9008954F925F926F927F928F929F92DD
:1031E000AF92CF92DF92EF92FF920F931F93CF9304
:1031F000DF9300D01F92CDB7DEB7EBE98E2E992476
:103200009394FCE94F2E55245394ABE0FA2E662498
:103210006394712CC2010C970E945B21813009F0EC
:10322000ADC0C20104970E945B21A82EC201059780
:103230000E945B21C82EC20106970E945B21E82EE6
:10324000C20107970E945B21082FC20108970E94C4
:103250005B21282FC20109972B830E945B21482FF5
:10326000C2010A974A830E945B21682FC2010B9713
:1032700069830E945B212B814A8169810E945E1EC5
:103280008F9DF0011124E05FF94FE08482858D323B
:1032900009F4E194C20102970E945921D82E8201BB
:1032A00003501109C8010E945B21813061F4ED14C3
:1032B00054F4C4010E945B21182F8FEF810F8430DA
:1032C00008F05CC00FC0C8010E945B21823011F47D
:1032D000ED1479F3C8010E945B21833001F5DE14FF
:1032E00044F31DC0C2010E945B21212F30E08130D8
:1032F00059F488B12F5F3F4FA30102C0440F551FFF
:103300002A95E2F79A0138C088B12F5F3F4FF30149
:1033100002C0EE0FFF1F2A95E2F79F011FC0C201F6
:1033200001960E945B21813049F5C4010E945B2116
:10333000182F8FEF810F843008F5C2010E945B21A6
:10334000212F30E0813071F488B12F5F3F4FA3010E
:1033500002C0440F551F2A95E2F79A0120952823B1
:1033600028B90CC088B12F5F3F4FF30102C0EE0FA8
:10337000FF1F2A95E2F79F01822B88B9FFE04F0ECD
:10338000511C4FE0840E911C58ED451651E0550636
:1033900009F040CF0F900F900F90DF91CF911F91C8
:1033A0000F91FF90EF90DF90CF90AF909F908F9014
:1033B0007F906F905F904F900895CF93DF93CDB73C
:1033C000DEB769970FB6F894DEBF0FBECDBF88E1B8
:1033D0000FB6F89480936000109260000FBEA8951D
:1033E00028E288E190E00FB6F894A89580936000F9
:1033F0000FBE20936000A895A89584E690E00E94F7
:10340000161760E875E280E090E00E94231E85E0D8
:1034100091E09093F0228093EF229093F222809398
:10342000F1229093EE228093ED221F928DE08F93F4
:103430001F9282E08F938BE392E09F938F930E9481
:103440009B3E84EC99E00E9416170E944D370E9423
:10345000443784E690E00E94161782E390E00E94D1
:103460005B218093850581500F900F900F900F90F6
:103470000F900F908E3F58F40E94443760E080E038
:103480000E948D3760E089E591E00E94AA37A895F7
:1034900084EC99E00E9416178AE099E0909309095C
:1034A000809308091F928DE08F931F9282E08F9383
:1034B00085E192E09F938F930E949B3E80E090E095
:1034C0000E945B210F900F900F900F900F900F9024
:1034D0008F3F09F0A8C08CEF91E09F938F930E94DB
:1034E0009B3E60E080E090E00E941C2130EC309335
:1034F0001F0128EA2093200181E0809321019FE2AF
:10350000909322019FEF909317019093180190934D
:10351000190110921A013093230120932401809302
:1035200025018093260188E0809313018093140184
:10353000809315018093160160E58DE190E00E9473
:103540001C2160E08AE090E00E941C2160E082E3A0
:1035500090E00E941C210E94931744E06FE671E006
:1035600088EC90E00E945F2160E08CEC90E00E948B
:103570001C2160E08DEC90E00E941C2160E08EEC4C
:1035800090E00E941C2160E08FEC90E00E941C21E2
:1035900060E080ED90E00E941C2160E081ED90E011
:1035A0000E941C2161E084E690E00E941C2161E001
:1035B00085E690E00E941C2161E086E690E00E9492
:1035C0001C2161E087E690E00E941C2161E088E612
:1035D00090E00E941C2161E089E690E00E941C219D
:1035E00061E08AE690E00E941C2161E08BE690E0B9
:1035F0000E941C2160E08EE690E00E941C2160E0A9
:103600008FE690E00E941C2160E080E790E00E943D
:103610001C2160E081E790E00E941C210F900F9038
:1036200000E911E008C08BE090E00E945B218F3F31
:1036300009F057C050CF60E0C8010E941C2160E033
:10364000C80101960E941C2160E0C80102960E94F8
:103650001C2160E0C80103960E941C2160E0C801A3
:1036600004960E941C2160E0C80105960E941C215E
:1036700060E0C80106960E941C2160E0C801079620
:103680000E941C2160E0C80108960E941C216CE386
:10369000C80109960E941C2160E0C8010A960E9498
:1036A0001C2160E0C8010B960E941C2160E0C8014B
:1036B0000C960E941C2160E0C8010D960E941C21FE
:1036C00060E0C8010E960E941C21015F1F4F0C3C58
:1036D00021E0120709F0AFCF62E081E090E00E94A4
:1036E0001C21809113018F3F59F488E080931301CE
:1036F0008093140180931501809316010E94931703
:103700000E94321781E00E940F228CE390E00E9419
:10371000F322A82EB12CA895E12CF12C00E010E0AA
:1037200049ECC42E41E0D42E0A151B050CF040C014
:10373000E0910809F0910909EE0DFF1D80818130AB
:1037400089F5A3EDB9E181918D9349E1AB3DB407D2
:10375000D1F78091DA191F928F938091D9191F9216
:103760008F938091D8191F928F938091D7191F92B0
:103770008F938091D6191F928F938091D5191F92A4
:103780008F938091D4191F928F938091D3191F9298
:103790008F93DF92CF920E949B3E0FB6F894DEBFCC
:1037A0000FBECDBF0F5F1F4F98E0E90EF11CBCCFDD
:1037B000A8958091D319811120C080E991E09F9351
:1037C0008F930E949B3E85E18093D31986E180937D
:1037D000D41987E18093D51988E18093D61989E1BE
:1037E0008093D7198AE18093D8198BE18093D919F6
:1037F0008CE18093DA190F900F90E4EDF9E1A8E2E3
:10380000B1E081918D9329E1E93DF207D1F78091F3
:10381000850581508E3F08F058C060E081E00E942D
:103820008D378091DA191F928F938091D9191F9249
:103830008F938091D8191F928F938091D7191F92DF
:103840008F938091D6191F928F938091D5191F92D3
:103850008F938091D4191F928F938091D3191F92C7
:103860008F9384E791E09F938F938E010F5F1F4F9B
:103870001F930F930E94EC3E60E0C8010E94AA379C
:1038800060E082E00E948D37809122011F928F9329
:10389000809121011F928F93809120011F928F931D
:1038A00080911F011F928F9389E991E09F938F93DD
:1038B0001F930F930E94EC3E0FB6F894DEBF0FBE2D
:1038C000CDBF60E0C8010E94AA37A895A89587E2FD
:1038D00091E00E94A00D80E00E949B0D80E08A95FF
:1038E000F1F7A8950E947B240E9482238AE00E941F
:1038F00070230E94F317E4EBF5E082E090E021E012
:1039000030E0419167B1411109C0A901082E01C001
:10391000440F0A94EAF7642B67B909C0A901082E7D
:1039200001C0440F0A94EAF74095462347B901962F
:103930008630910531F7789466E774E084E10E945F
:10394000770D40E550E06FE171E087E291E00E9481
:10395000D21083E291E00E94B514A8950E94450E12
:103960001F928F9389EA91E09F938F930E94893EE3
:10397000A8950E94F22684EF91E00E9416170F90FE
:103980000F900F900F90CC24C394D12C9924939432
:10399000A89580919005909191050E9472240297BC
:1039A000A0F480918605909187050E947224892B4E
:1039B00009F480C080912D0190912E01909387058C
:1039C000809386050E94FF2675C080912D019091FD
:1039D0002E0190939105809390059CEAA92E95E085
:1039E000B92E2AE0E22E29E1F22E00E010E0802E2E
:1039F000C8018C599F4F0E945B213501F5018083DE
:103A0000813031F4802F0E949D23F70191838083C0
:103A1000FFEFAF1ABF0AF3018081823091F420B129
:103A2000C60102C0880F991F8A94E2F730E0822312
:103A30009323F701892B19F0D182C08202C0118231
:103A400010820F5F1F4FF2E0EF0EF11C08301105DE
:103A500071F60AE1E02E09E1F02E84EBA82E85E054
:103A6000B82E0EE610E0C8010E945B21F50181939B
:103A70005F018D7FB1F426B1C8018C569109A60172
:103A800002C0440F551F8A95E2F7CA0130E0822335
:103A90009323F701892B19F0D182C08202C01182D1
:103AA00010820F5F1F4FF2E0EF0EF11C023711057D
:103AB000D1F677CF80919205909193050E94722460
:103AC000029750F080912D0190912E0190939305D3
:103AD000809392050E94861F80918A0590918B05A4
:103AE0000E9472244E97A0F08091A205811110C00F
:103AF00080912D0190912E0190938B0580938A05E2
:103B00009092A20582E390E00E945B21809385055C
:103B100080918E0590918F050E947224892B79F0F7
:103B200080912D0190912E0190938F0580938E05A9
:103B30008091850581508E3F10F40E943E26809131
:103B40008C0590918D050E94722488309740A8F4CE
:103B500080918805909189050E947224059770F1E3
:103B600080912D0190912E01909389058093880575
:103B70000E94EA180E94771821C080912D0190912F
:103B80002E0190938D0580938C051CEAE12E15E0A3
:103B9000F12E0EE610E0F70181917F01833041F4B0
:103BA000F801E456F74E60817181C8010E94382106
:103BB0000E5F1F4F0E37110571F7CACF0E94D13229
:103BC000E7CEEF92FF921F93CF93DF93CCEAD5E03D
:103BD000E4EAF8E0AAE0B9E180E090E011E041E039
:103BE00050E0282F3991333011F5883028F066B134
:103BF0009C012650310901C060B17A0102C0EE0C6F
:103C0000FF1C2A95E2F7970170E026233723232B28
:103C100069F0208121110BC02D913C9111972F5FEC
:103C20003F4F11963C932E93108301C01082019652
:103C3000319612968C309105A1F6DF91CF911F91AC
:103C4000FF90EF9008959B01AC0188E08093C10044
:103C500084E0220F331F441F551F8A95D1F760E07F
:103C600072E18AE790E00E948C3B21503109309349
:103C7000C5002093C40008959091C00095FFFCCF2B
:103C80008093C60080E090E00895FC01680F791FE2
:103C900080E048E1E617F70781F0219198E0322FA4
:103CA0003827532F517030FD84278695513009F401
:103CB00080682695915099F7EDCF0895AF92CF92F5
:103CC000EF920F93CF93DF93E7E1F6E0A0E0B0E04F
:103CD000EF012797988198131DC02196988196131C
:103CE00019C021969881941315C02196988192133A
:103CF00011C02196988190130DC0219698819E1134
:103D000009C0219698819C1105C090819A1102C02A
:103D1000CD0121C011963B96AC33B105C9F6909107
:103D200094059D3310F010929405909194053BE01A
:103D3000939FF0011124E05FF94F808361834283F8
:103D400023830483E582C682A78281E0890F809362
:103D5000940590E00197DF91CF910F91EF90CF9074
:103D6000AF900895EF92FF920F931F93CF93DF933D
:103D7000DB01EC9111969C911197F0E0F92B8031C9
:103D800081F4BF016E7FE3E0660F771FEA95E1F7EC
:103D900016969C911697ECE0F0E0E91BF109E60F0E
:103DA000F71FF7FF07C091E0EA019883F195E195CD
:103DB000F10902C0EA011882883279F414968C91D4
:103DC000982F9076903649F086FF02C0EE7F05C0AE
:103DD00085FF02C0EC7F01C0E87FCF0144E09695EB
:103DE00087954A95E1F7D9018C938E2F8F70E80162
:103DF0008883D701ED93FC9380E0DF91CF911F91F1
:103E00000F91FF90EF9008951F93CF93DF9300D011
:103E1000CDB7DEB7182F69837A830E94CC210E9428
:103E2000B02169817A81882341F084E40E944D2386
:103E3000113029F00E94B92102C082E001C080E067
:103E40000F900F90DF91CF911F9108952F923F9285
:103E50004F925F926F927F928F929F92AF92BF929A
:103E6000CF92DF92EF92FF920F931F93CF93DF9346
:103E7000CDB7DEB729970FB6F894DEBF0FBECDBF22
:103E80006C015B014A0139010E94CC21B6018EEB25
:103E90000E944D23CE0101961C017E019AE0E90E9D
:103EA000F11C21010E949F22F10181931F01EE1557
:103EB000FF05C1F769E070E0C2010E94451E811153
:103EC0000BC0780183019401A501B201F601808144
:103ED0000E94B21E80E001C083E029960FB6F894DC
:103EE000DEBF0FBECDBFDF91CF911F910F91FF902D
:103EF000EF90DF90CF90BF90AF909F908F907F908A
:103F00006F905F904F903F902F9008952F923F9227
:103F10004F925F926F927F928F929F92AF92CF92C9
:103F2000EF92FF920F931F93CF93DF93CDB7DEB73E
:103F3000E1970FB6F894DEBF0FBECDBF8091840528
:103F4000811110C081E08093840511E0812F0E94CF
:103F50000F2260E070E080E00E94041F1F5F1430B9
:103F6000A9F753C110928405FF24F3949E01295DA3
:103F70003F4F3FA72EA7CE0101963C018F2D0E94F7
:103F80000F228CE390E00E94F322A82FB0E0B9AB9F
:103F9000A8ABF7E02F2E312C812C912C412C512CE9
:103FA0009E01265E3F4F3DA72CA7A8A9B9A94A1696
:103FB0005B060CF026C1E0910809F0910909DF01C8
:103FC000A80DB91D8C918D3109F06FC0E20DF31D64
:103FD00080811F928F93DF0111978C911F928F9395
:103FE00011978C911F928F9311978C911F928F93A1
:103FF00011978C911F928F9311978C911F928F9391
:1040000011978C911F928F93379780811F928F9376
:104010008AEB91E09F938F930E94893E3FEF89E660
:1040200098E1315080409040E1F700C000000E94CC
:10403000CC2185E50E948E220FB6F894DEBF0FBE1C
:10404000CDBF00E010E0E0910809F0910909E00F10
:10405000F11FE80DF91D80810E948E220F5F1F4F16
:104060000830110581F78AE50E948E2280EC0E94BB
:104070008E2281E00E948E2210E20E949F221F92D7
:104080008F935F924F92ADEEB1E0BF93AF930E94DA
:10409000893E11500F900F900F900F900F900F903E
:1040A00061F78AEF91E00E94BF3EE0910809F0912C
:1040B0000909E80DF91D8081803119F0883209F075
:1040C00096C0DE015F9681918D938EA59FA5A8175E
:1040D000B907C9F78E01095D1F4F9E01275D3F4F4C
:1040E000AE01465D5F4FBE01655D7F4FCE014F96CD
:1040F0000E94261F811173C08BA5882311F01DE239
:1041000001C01BE2E0910809F0910909E80DF91DD1
:10411000A780C680E58004812381428161818081FE
:104120000E945E1E2BE0289FF001299FF00D1124B4
:10413000DF01A85EB94F8AA58C9349A5E05FF94FCE
:104140004187128721E732E0429FC001439F900DD3
:1041500011249F938F938C911F928F931F921F9383
:1041600087811F928F9386811F928F9385811F92E3
:104170008F9384811F928F9383811F928F9382816B
:104180001F928F9381811F928F9380811F928F93B3
:1041900080E892E09F938F937F926F920E941B3FE3
:1041A000F3010FB6F894DEBF0FBECDBF80E0919152
:1041B000890F2CA53DA5E217F307C9F71F928F932E
:1041C0007F926F9280E092E09F938F930E94893E4E
:1041D0000F900F900F900F900F900F9008C083E6F4
:1041E00092E09F938F930E949B3E0F900F903FEF22
:1041F000431A530A88E0880E911C9BE0290E311C5B
:10420000D4CEF394B4E0FB12B9CEE1960FB6F89495
:10421000DEBF0FBECDBFDF91CF911F910F91FF90F9
:10422000EF90CF90AF909F908F907F906F905F9026
:104230004F903F902F9008950F931F93CF93DF934C
:104240001F92CDB7DEB78C0169830E949E426981BF
:10425000861741F0C8010F90DF91CF911F910F9108
:104260000C94AC420F90DF91CF911F910F91089564
:104270000F931F93CF93DF9300D0CDB7DEB78C01A0
:1042800069837A830E94A64269817A81861797079B
:1042900049F0C8010F900F90DF91CF911F910F91BE
:1042A0000C94BA420F900F90DF91CF911F910F9114
:1042B00008950C949E420C949E420C94A642CF9278
:1042C000DF92EF92FF920F931F93CF93DF931F9292
:1042D000CDB7DEB78B016B017C01E61AF70A8C2D96
:1042E000801B841758F4C7018C0D9D1DF601619148
:1042F0006F0149830E941C214981F1CF0F90DF910A
:10430000CF911F910F91FF90EF90DF90CF90089584
:10431000DF92EF92FF920F931F93CF93DF937C0175
:10432000EB01D42E50E060E070E0CE010E94CD3D64
:104330008E01EC1AFD0A802F8C1B8D1548F4C701E5
:10434000800F911F0E949E42F80181938F01F3CF4D
:10435000DF91CF911F910F91FF90EF90DF90089523
:10436000E0918320F09184209081809182208923A4
:104370000895E0918020F0918120808190918220A9
:10438000892B8083E0918520F09186208081909117
:104390008220892B80830895E0918020F0918120F4
:1043A000908180918220809589238083E09185206F
:1043B000F0918620808190918220892B80838FEBE1
:1043C00093E00197F1F700C000009FB7F894E091E7
:1043D0008520F09186202081809182208095822303
:1043E0008083E0EBEA95F1F7E0918320F09184205F
:1043F0002081809182209FBFEBE3F3E03197F1F7BA
:1044000000C00000E0918320F091842090813091E1
:104410008220932311F08223089581E00895823051
:10442000C9F0833059F1813009F03FC08AE290E051
:1044300090938620809385208BE290E0909381205A
:104440008093802089E290E0909384208093832061
:1044500080E127C08AE290E09093862080938520B7
:104460008BE290E0909381208093802089E290E01D
:10447000909384208093832080E213C08AE290E0AE
:1044800090938620809385208BE290E0909381200A
:104490008093802089E290E0909384208093832011
:1044A00080E4809382200C94CC2108952FB7F89457
:1044B000E0918520F0918620908130918220932B8D
:1044C000908392E09A95F1F700C0882351F0E09133
:1044D0008520F091862030819091822090959323C1
:1044E000908392E29A95F1F700C0E0918320F091D9
:1044F0008420908130918220932309F480E098E712
:104500009A95F1F7E0918520F09186203081909185
:1045100082209095932390832FBF0895CF93DF93AC
:10452000C82FD8E08C2F81700E945622C695811129
:10453000C068D150B9F78C2FDF91CF9108958FEFDC
:104540000C948E22DF92EF92FF920F931F93CF93E2
:10455000DF93E82EEB010E94CC2181112FC080EF68
:104560000E948E22F12C10E488EFD82ED10E81E02B
:104570000E945622082F81E00E945622882319F0BB
:10458000002361F01DC0011109C01E1528F08881AB
:1045900080FF04C0E11611F0F12E01E0802F0E948F
:1045A00056229881969501119068988311501D119B
:1045B000DECF21961111D8CF8F2D03C08FEF01C010
:1045C0008EEFDF91CF911F910F91FF90EF90DF90D1
:1045D0000895CF93DF93EC0188810E94A222888303
:1045E000DF91CF9108959F92AF92BF92CF92DF92C9
:1045F000EF92FF920F931F93CF93DF93CDB7DEB768
:1046000029970FB6F894DEBF0FBECDBF6C018FEFB8
:104610008987912C5E0189E0A80EB11C8E010F5F85
:104620001F4F8985882331F1E92CF12CEC14FD040E
:104630000CF5B801C5010E94E92289858E5F8230A0
:10464000C8F0970193E0220F331F9A95E1F7F80124
:10465000201B310BA9014E0F5F1FA0910809B091DB
:104660000909A40FB51F81918C93EA15FB0591F7F9
:104670009394D7CF892D29960FB6F894DEBF0FBE3D
:10468000CDBFDF91CF911F910F91FF90EF90DF9001
:10469000CF90BF90AF909F900895FF920F931F937C
:1046A000CF93DF93F82EEB010E94CC21209769F085
:1046B00085E50E948E228E01085F1F4F89910E941E
:1046C0008E22C017D107D1F703C08CEC0E948E2236
:1046D0008F2DDF91CF911F910F91FF900C948E221F
:1046E000809395051092B90080E28093B8000895F8
:1046F00080919605882329F08091960581508093BA
:104700009605089587E880937A00089511B8805C33
:1047100080937C0080917A00806480937A008091FD
:104720007A0084FFFCCF80917A00806180937A00C8
:10473000809178009091790008950F931F93CF9303
:10474000DF93082F10E4C0E0D0E0802F0E94862382
:10475000C80FD91F1150C9F7CE0126E0969587954D
:104760002A95E1F7DF91CF911F910F910895EF9274
:10477000FF920F931F93CF93DF9300D000D0CDB75C
:10478000DEB7FC017B0170E060E0262F30E0D7014E
:104790005D917D01852F82958F70863028F484305D
:1047A00030F48330A9F019C0883048F016C0852F46
:1047B00090E0815491098A319105F0F41EC0852F53
:1047C00090E0815691098A319105B0F4865E15C05A
:1047D0005A3390F484E0850F10C05D3249F018F42C
:1047E0005B3231F009C05F3229F05F3519F004C047
:1047F0008EE303C08FE301C08FEF01E010E00C0FE8
:104800001D1F200F311FD9018C938F3F79F45D3329
:1048100021F47F5F723069F456C0552359F15D3041
:1048200041F05A3031F0442321F04AC0711148C0A0
:104830006F5F643009F0A9CF2A818981B4E08B9F32
:10484000C0011124922F92959F70982B90838B8199
:1048500000E1209F90011124982F96959695922B18
:10486000918310E4819FC00111249C81982B928335
:1048700033968ACF662349F17130A9F48A81298160
:1048800094E0299F90011124982F92959F70922B6C
:104890009083A0E18A9FC00111249B8196959695F3
:1048A000982B918312C0723059F48981B4E08B9FA8
:1048B000C00111249A8192959F70982B908305C016
:1048C0008FEF9FEF04C06111F0CF80E090E00F9078
:1048D0000F900F900F90DF91CF911F910F91FF904C
:1048E000EF90089520912D0130912E01A901481BD0
:1048F000590BCA010895E1E8F0E080818C60808363
:104900008DE790E09093890080938800E0E8F0E0E4
:104910008081846080831092882010928720EFE647
:10492000F0E080818260808308951F920F920FB61D
:104930000F9211240BB60F922F933F934F935F93D7
:104940006F937F938F939F93AF93BF93EF93FF9357
:104950008091892090918A20019690938A2080935B
:10496000892020918720309188202F5F3F4F3093FE
:1049700088202093872020918B2030918C20AC01BF
:10498000421B530B9A01243F314070F020912D01BE
:1049900030912E012F5F3F4F30932E0120932D0138
:1049A00090938C2080938B206AE070E00E94783B8B
:1049B000892B11F40E9478230E94E11DFF91EF9151
:1049C000BF91AF919F918F917F916F915F914F9127
:1049D0003F912F910F900BBE0F900FBE0F901F9025
:1049E00018952F923F924F925F926F927F928F9283
:1049F0009F92AF92BF92CF92DF92EF92FF920F936E
:104A00001F93CF93DF93CDB7DEB72B970FB6F894F4
:104A1000DEBF0FBECDBFF82E8B012BEB32E03F93F4
:104A20002F930E949B3E1092A2050F900F90F110C1
:104A3000E9C068E072E0C8018552964E0E94103EBF
:104A40008C010C5F1F4F1F930F938DE092E09F939B
:104A50008F930E94893E0F900F900F900F90CE0180
:104A600001967C012AE1822E22E0922E6E0197E0CF
:104A7000C90ED11C33E9432E32E0532E0115110526
:104A800009F4C0C0D8018C918A3011F40F5F1F4F18
:104A900045E050E0B8016A5A7F4FC7010E94F63DD9
:104AA0001E82FF92EF929F928F920E94893EC701D1
:104AB0000E94A43C3C015801BFEFAB1ABB0AF501B0
:104AC0000F900F900F900F9084E5212C312C919135
:104AD000290E311C8150D9F73F922F92A7E2B2E004
:104AE000BF93AF930E94893E0F900F900F900F904D
:104AF0002614370409F064C0D8018C9190ED392E4A
:104B0000380E632C712C1F923F921F928F93AFE34C
:104B1000B2E0BF93AF930E94893E44E050E0B501FC
:104B2000C6010E94F63D1B86DF92CF92A6E6B2E058
:104B3000BF93AF930E94893EC6010E94A43CF3013B
:104B4000E151FF4D808399279F938F931F923F924E
:104B5000A7E7B2E0BF93AF930E94893E0B5F1F4F60
:104B6000F4E53F9EA00111244B505F4D0FB6F89421
:104B7000DEBF0FBECDBF80E090E0BA01680F791FA5
:104B800020E030E0F801E20FF31FA081FB01E20F0B
:104B9000F31FA0832F5F3F4F2431310599F7FA01AE
:104BA000E80FF91F148A45960C5E1F4F8435910556
:104BB00021F780912F018E3F19F49AEF90932F01E6
:104BC0006AE070E0C5010E94D43D8C01FC010190B7
:104BD0000020E9F73197E81BF90BFF93EF935F9201
:104BE0004F920E94893EF80101900020E9F7319729
:104BF000E01BF10B0F900F900F900F90E035F10537
:104C000008F03CCF2B960FB6F894DEBF0FBECDBF99
:104C1000DF91CF911F910F91FF90EF90DF90CF9098
:104C2000BF90AF909F908F907F906F905F904F90CC
:104C30003F902F900895FF920F931F93CF93DF9390
:104C400094E5899F80011124C0E0D0E0F12C0B5045
:104C50001F4D60E08F2D0E948D3760E0C8018C0FE2
:104C60009D1F0E94AA37F394659684E0F812F1CF55
:104C7000DF91CF911F910F91FF900895CF93809175
:104C80002F018F3F79F483EA92E00E94BF3E80912A
:104C9000A20581112AC08AE08093A2058EEF80933D
:104CA0002F0123C08E3F91F48091970591E0980FDA
:104CB000909397058D33C8F083ED92E00E94BF3E3C
:104CC0008AE08093A205109297050FC08A3F69F48D
:104CD00082EE92E00E94BF3E10922F018091EF2061
:104CE0008093980580E00E941B2680912F018730D9
:104CF00008F076C090919805992319F091509093FF
:104D0000980590919705992319F0915090939705E4
:104D1000EFEEF0E2C0E091919111CF5F90E2E53FBC
:104D2000F907C9F7909198051F929F931F928F934F
:104D300081E093E09F938F930E94893E0F900F90A4
:104D40000F900F900F900F908091970581111DC0CB
:104D5000C13021F480919805843148F02C2F30E047
:104D600080912F0190E001962817390771F4809106
:104D7000A20581110AC08EE193E00E94BF3E8AE045
:104D80008093A2058EE1809397058091980581110B
:104D900027C087E393E00E94BF3E80912F018F5F81
:104DA0008C1718F480932F0102C010922F0180916C
:104DB0002F010E941B2680912F01E82FF0E0E15186
:104DC000FF4D9081909398051F928F9383E593E018
:104DD0009F938F930E94893E0F900F900F900F909A
:104DE000CF9108958FE693E00E94BF3EEFE8F0E296
:104DF0001192119280E2EF3EF807D1F70895CF9219
:104E0000DF92EF92FF920F931F93CF93DF938091E6
:104E1000A4059091A505A091A605B091A7050196BE
:104E2000A11DB11D8093A4059093A505A093A6058F
:104E3000B093A705CFE8D0E200E010E043E8E42E0D
:104E400043E0F42ECC24C394D12C8881998100971F
:104E500009F45DC02F812F932E812F932D812F93E5
:104E60002C812F932B812F932A812F939F938F93A4
:104E70001F930F93FF92EF920E94893E8A819B813C
:104E80002DB73EB7245F3F4F0FB6F8943EBF0FBE1D
:104E90002DBF8430910568F09F938F938AEA93E049
:104EA0009F938F930E94893E0F900F900F900F90C9
:104EB00035C08E819F8101979F838E83892B39F521
:104EC0008DEC93E00E94BF3E2C813D818A819B81C5
:104ED0002130310551F448B10296082E01C0220F4D
:104EE0000A94EAF72095242309C028B10296A60166
:104EF00002C0440F551F8A95E2F7242B28B9198266
:104F000018821B821A821D821C821F821E820F5FE2
:104F10001F4F28960C30110509F097CFDF91CF91E4
:104F20001F910F91FF90EF90DF90CF900895EF9237
:104F3000FF921F93CF93DF9300D01F92CDB7DEB7C0
:104F4000182F1F922F931F924F931F926F931F92B0
:104F50008F93E6EDF3E0FF93EF932B834A8369830E
:104F60000E94893E2FE8E22E20E2F22E0FB6F8943E
:104F7000DEBF0FBECDBFE0E0F0E069814A812B814A
:104F8000D7018D919C91892B09F5DF01AA0FBB1FD9
:104F9000A157BF4D812F90E08D939C93DF01AA0F05
:104FA000BB1FAF56BF4D70E06D937C93DF01AA0F1E
:104FB000BB1FAD56BF4D50E04D935C93EE0FFF1FEE
:104FC000EB56FF4D30E03183208307C03496B8E0C4
:104FD000EB0EF11CE033F10599F60F900F900F9056
:104FE000DF91CF911F91FF90EF9008952F923F9204
:104FF0004F925F926F927F928F929F92AF92BF92E9
:10500000CF92DF92EF92FF920F931F93CF93DF9394
:10501000CDB7DEB72C970FB6F894DEBF0FBECDBF6D
:10502000F82E8B012BEA32E03F932F934B875C875E
:105030000E949B3E1092A2050F900F904B855C85BD
:10504000F110FAC05F934F931F930F9386EF93E095
:105050009F938F930E94893E0552164E1F930F9384
:105060008BE094E09F938F930E94893E68E072E00A
:10507000C8010E94103E04969F938F938DE092E0AA
:105080009F938F930E94893E68E174E0C8010E945B
:10509000103E8C010FB6F894DEBF0FBECDBFCE011F
:1050A00001969A8789871E0193E0290E311C2E01F3
:1050B000A5E04A0E511C7E01B7E0EB0EF11C36E272
:1050C000C32E34E0D32E46E3A42E44E0B42E57E69C
:1050D000852E54E0952E66246394712C01151105DC
:1050E00009F495C01F930F93ACE1B4E0BF93AF9365
:1050F0000E94893E5A855F9389858F933F922F92B4
:105100005F924F92FF92EF92DF92CF921F930F9395
:105110000E944A3F8A818F9389818F938C818F93DC
:105120008B818F938E818F938D818F9388858F93C1
:105130008F818F93BF92AF920E94893E8091AB0581
:105140008F938091AA058F938091A9058F93809169
:10515000A8058F939F928F920E94893E4F81588518
:1051600060E070E00FB6F894DEBF0FBECDBF809157
:10517000A8059091A905A091AA05B091AB05841747
:105180009507A607B70728F08CE794E00E94BF3E7A
:1051900033C02B813C818D819E812130310551F4BA
:1051A00048B10296082E01C0220F0A94EAF7422B5A
:1051B00048B90CC028B10296A30102C0440F551F84
:1051C0008A95E2F7CA018095822388B929813A81BC
:1051D0002115310529F04B816D818F810E94972720
:1051E0008F819885A0E0B0E08093A8059093A905F1
:1051F000A093AA05B093AB056AE070E0C8010E94D5
:10520000D43D68E174E00E94103E8C0167CF80912C
:105210009A0590919B05A0919C05B0919D050196E2
:10522000A11DB11D80939A0590939B05A0939C05A9
:10523000B0939D05109299052C960FB6F894DEBF99
:105240000FBECDBFDF91CF911F910F91FF90EF90D7
:10525000DF90CF90BF90AF909F908F907F906F9096
:105260005F904F903F902F90089542E85CE060E09F
:1052700070E08BED99E10C9430124BE25CE060E061
:1052800070E08BED99E10C94301247EA5BE060E04E
:1052900070E08BED99E10C9430122F923F924F9277
:1052A0005F926F927F928F929F92AF92BF92CF92B6
:1052B000DF92EF92FF920F931F93CF93DF9300D073
:1052C00000D0CDB7DEB77C010E9435299C838B834B
:1052D0000AE116E0E1E78E2EE2E09E2EFAE7CF2EFD
:1052E000FBE0DF2EAAE0AA2EA9E0BA2EF8013A9739
:1052F0002081222309F443C039963081389DC001B2
:10530000399D900D11249F938F93319780811F9227
:105310008F93D8018C911F928F93319780811F9228
:105320008F93319780811F928F93319780811F9245
:105330008F93319780811F928F93319780811F9235
:105340008F93319780811F928F93319780811F9225
:105350008F931F922F93DF92CF92BF92AF920E94B2
:105360001B3F4AE059E06B817C81C7010E945112CA
:105370009C838B830FB6F894DEBF0FBECDBF055F55
:105380001F4FF8E00E3A1F0709F0B0CF5AE0C52EC4
:1053900059E1D52E00E010E061E7862E6BE0962EF5
:1053A0007AE0A72E79E0B72ED6018C9111969C91C8
:1053B000B2E0CB0ED11C9F938F931F930F939F92BC
:1053C0008F92BF92AF920E941B3F4AE059E06B81DF
:1053D0007C81C7010E9451129C838B830F5F1F4FFA
:1053E0000FB6F894DEBF0FBECDBF08301105E1F651
:1053F0002AE1C22E29E1D22E00E010E038E6832E09
:105400003BE0932E4AE0A42E49E0B42ED6018C91C5
:1054100011969C91B2E0CB0ED11C9F938F931F935A
:105420000F939F928F92BF92AF920E941B3F4AE0D0
:1054300059E06B817C81C7010E9451129C838B8350
:105440000F5F1F4F0FB6F894DEBF0FBECDBF043005
:105450001105E1F61AE3C12E19E1D12E08E110E0A1
:105460008EE5882E8BE0982E9AE0A92E99E0B92E31
:10547000D6018C9111969C91B2E0CB0ED11C9F93DA
:105480008F931F930F939F928F92BF92AF920E9420
:105490001B3F4AE059E06B817C81C7010E94511299
:1054A0009C838B830F5F1F4F0FB6F894DEBF0FBE38
:1054B000CDBF0C311105E1F6F2E3CF2EF9E1DF2E7D
:1054C00004E110E0A4E58A2EABE09A2EBAE0AB2E00
:1054D000B9E0BB2ED6018C9111969C91B2E0CB0E17
:1054E000D11C9F938F931F930F939F928F92BF9284
:1054F000AF920E941B3F4AE059E06B817C81C7015B
:105500000E9451129C838B830F5F1F4F0FB6F8943C
:10551000DEBF0FBECDBF08311105E1F674EBA72E3B
:1055200075E0B72E0EE619E1C12CD12CEAE02E2E43
:10553000E9E03E2E9C2C8D2CBA82A982D5018C915B
:10554000843009F05CC080916E1990916F1997FFBB
:1055500016C0F801808191819F77BC0180E090E0C6
:105560000E94163C20E030E040E251E40E94AE3B55
:105570002B013C0177FA709477F8709410C0D80131
:105580008D919C91BC0180E090E00E94163C20E04F
:1055900030E040E251E40E94AE3B2B013C01F801B7
:1055A00082819381BC0180E090E00E94163C20E063
:1055B00030E040E251E40E94AE3B9F938F937F9393
:1055C0006F938F929F927F926F925F924F928F9282
:1055D0009F92A1E4BBE0BF93AF933F922F920E94B2
:1055E0001B3F4AE059E06B817C81C7010E94511248
:1055F0009C838B830FB6F894DEBF0FBECDBF9FEFA9
:10560000A91AB90AA981BA818C91853081F5F8016E
:105610006281738180E090E00E94163C9F938F939B
:105620007F936F938F929F92D8016D917C9180E0D0
:1056300090E00E94163C9F938F937F936F938F927D
:105640009F92AEE2BBE0BF93AF933F922F920E9436
:105650001B3F4AE059E06B817C81C7010E945112D7
:105660009C838B830FB6F894DEBF0FBECDBF9FEF38
:10567000C91AD90A0C5F1F4FA4E0CA16D10409F059
:1056800059CF8B819C810F900F900F900F90DF91DD
:10569000CF911F910F91FF90EF90DF90CF90BF902F
:1056A000AF909F908F907F906F905F904F903F90C2
:1056B0002F900895EF92FF920F931F93CF93DF9354
:1056C000EC010E9435297C0180912E018F938091FD
:1056D0002D018F9328E03BE03F932F930AE019E0E0
:1056E0001F930F930E941B3FA801B701CE010E9498
:1056F00051127C0127EE3AE03F932F931F930F93B3
:105700000E941B3FA801B701CE010E9451127C01EB
:105710008091DA191F928F938091D9191F928F93DC
:105720008091D8191F928F938091D7191F928F93D0
:105730008091D6191F928F938091D5191F928F93C4
:105740008091D4191F928F938091D3191F928F93B8
:105750002AEB3AE03F932F931F930F930E941B3F36
:10576000A801B701CE010E9451128C010E9493142E
:105770002DB73EB7225E3F4F0FB6F8943EBF0FBE27
:105780002DBF882319F047E95AE006C08091A30590
:10579000813061F44DE75AE0B801CE01DF91CF913D
:1057A0001F910F91FF90EF900C9430124091A4053F
:1057B0005091A5056091A6057091A70580E040383D
:1057C00031E5530731E06307710530F08F5F4058D2
:1057D000514561407109F3CF90E040312EE052070E
:1057E0006105710530F09F5F40515E4061097109AC
:1057F000F4CF20E04C3351056105710530F02F5F87
:105800004C53510961097109F5CF5F934F931F9272
:105810002F931F929F931F928F9380E59AE09F93FF
:105820008F938AE099E09F938F930E941B3F4AE0F9
:1058300059E0B801CE010E94511245E35AE0BC0183
:10584000CE010E9430128C014AE06AE079E080913A
:105850009E0590919F050E942A3E4AE059E0B801BA
:10586000CE010E94511242E15AE0BC01CE010E94D9
:1058700030128C014AE06AE079E080919A059091BB
:105880009B050E942A3E4AE059E0B801CE010E94E1
:10589000511246EA59E0BC01CE010E943012D82FC5
:1058A000C92F9F938F9328E939E03F932F930E944C
:1058B0009B3E8DB79EB740960FB6F8949EBF0FBE25
:1058C0008DBF8D2F9C2FDF91CF911F910F91FF9056
:1058D000EF9008952F923F924F925F926F927F9236
:1058E0008F929F92AF92BF92CF92DF92EF92FF92F0
:1058F0000F931F93CF93DF9300D0CDB7DEB78C010A
:105900000E9435297C012AE839E03F932F932AE051
:1059100039E03F932F930E941B3F4AE059E0B701C3
:10592000C8010E945112BC01B0E1EB2EB6E0FB2E83
:105930008AE1682E86E0782E0F900F900F900F90DE
:10594000212C312C81E091E7892E92E0992E24E5DB
:10595000C22E29E0D22E3AE0A32E39E0B32E522CEB
:10596000432CF7019081992309F452C0811106C09C
:105970004AE954E0C8010E945112BC01F301319779
:105980002081289DC001299D900D11249F938F9304
:10599000319780811F928F93F30180811F928F93A3
:1059A000339780811F928F93319780811F928F93BD
:1059B000319780811F928F93319780811F928F93AF
:1059C000319780811F928F93319780811F928F939F
:1059D000319780811F928F93F70180811F928F935F
:1059E0004F925F92DF92CF92BF92AF9269837A8398
:1059F0000E941B3F4AE059E069817A81C8010E94F8
:105A00005112BC010FB6F894DEBF0FBECDBF80E0CF
:105A10009FEF291A390AEBE0EE0EF11CFBE06F0E46
:105A2000711C9CE32916310409F099CF41E559E036
:105A3000C8010F900F90DF91CF911F910F91FF90B0
:105A4000EF90DF90CF90BF90AF909F908F907F901E
:105A50006F905F904F903F902F900C9430122F9248
:105A60003F924F925F926F927F928F929F92AF92EE
:105A7000BF92CF92DF92EF92FF920F931F93CF933B
:105A8000DF9300D000D01F92CDB7DEB72C010E946B
:105A9000352947E359E0BC01C2010E9430123C01A4
:105AA00088248394912C81E991E09D838C83F82C48
:105AB000192D2C803D8091E0291A31088C819D811F
:105AC0000E945B21811103C00FEFE12C3EC08C814D
:105AD0009D810E945B218F3FB9F38C819D81079648
